:020000040800F2
:1000000000500020CD0F0008D10D0008D90D0008C8
:10001000E10D0008E90D0008F10D000800000000E6
:10002000000000000000000000000000F90D0008C2
:10003000050E000800000000110E00081D0E00084B
:1000400015100008151000081510000815100008FC
:1000500015100008151000081510000815100008EC
:1000600015100008151000081510000815100008DC
:1000700015100008151000081510000815100008CC
:1000800015100008151000081510000815100008BC
:1000900015100008151000081510000815100008AC
:1000A000151000081510000815100008151000089C
:1000B000151000081510000815100008151000088C
:1000C000151000081510000815100008151000087C
:1000D000151000081510000815100008151000086C
:1000E0001510000815100008151000080000000089
:1000F0000000000000000000000000000000000000
:0C01000000000000000000005FF808F1A3
:10010C0010B5054C237833B9044B13B10448AFF345
:10011C0000800123237010BD14000020000000009B
:10012C005C24000808B5034B1BB103490348AFF32B
:10013C00008008BD00000000180000205C240008AE
:10014C0053B94AB9002908BF00281CBF4FF0FF3132
:10015C004FF0FF3000F08CB9ADF1080C6DE904CE16
:10016C0000F006F8DDF804E0DDE9022304B0704786
:10017C002DE9F047089D8E4604468846002B4AD14F
:10018C008A42174662D9B2FA82F64EB1C6F1200302
:10019C0001FA06F820FA03F3B74043EA0808B44022
:1001AC004FEA174EB8FBFEF11FFA87FC0EFB1188C5
:1001BC0001FB0CF2230C43EA08439A4209D9FB18C1
:1001CC0001F1FF3080F0EB809A4240F2E880023976
:1001DC003B449A1AB2FBFEF00EFB102200FB0CFC07
:1001EC00A3B243EA02439C4509D9FB1800F1FF3244
:1001FC0080F0D7809C4540F2D4803B44023840EAE2
:10020C0001400021A3EB0C031DB10022F340C5E912
:10021C000032BDE8F0878B4205D90DB1C5E900016C
:10022C0000210846F5E7B3FA83F1002946D173455E
:10023C0002D3824200F20881841A6EEB0302012081
:10024C009046002DE5D0C5E90048E2E7002A00F011
:10025C009180B2FA82F6002E40F0A5808A1A012114
:10026C00030C4FEA174E80B2BCB2B2FBFEFC0EFB85
:10027C001C2243EA024304FB0CF29A4207D9FB18F6
:10028C000CF1FF3802D29A4200F2E380C4469B1A6A
:10029C00B3FBFEF20EFB123302FB04F440EA034301
:1002AC009C4207D9FB1802F1FF3002D29C4200F2AB
:1002BC00CD8002461B1B42EA0C40A5E7C1F120068B
:1002CC008B4022FA06F71F432EFA06FA4FEA17491B
:1002DC00BAFBF9F80EFA01FE20FA06F309FB18AA8C
:1002EC001FFA87FC43EA0E0300FA01FE08FB0CF030
:1002FC001C0C44EA0A44A04202FA01F20AD93C1945
:10030C0008F1FF3A80F09E80A04240F29B80A8F159
:10031C0002083C44241A98B2B4FBF9F309FB1344C9
:10032C0003FB0CFC40EA0444A44509D93C1903F135
:10033C00FF3080F08580A44540F28280023B3C4433
:10034C0043EA0840A4EB0C04A0FB028C6445434632
:10035C00E14664D361D05DB1BEEB030264EB0904EA
:10036C0004FA06F622FA01F31E43CC40C5E90064F8
:10037C0000214EE7B1FBF2FC010C41EA0E4180B2C8
:10038C0040EA01423B46B1FBF7F138463C46B846E1
:10039C00BE462026A2EB080241EA0C4165E7014665
:1003AC0017E710462BE7C6F120012EFA01FCB740E7
:1003BC000EFA06FE20FA01F141EA0E014FEA174E41
:1003CC00BCFBFEF8BCB20EFB18CC08FB04F90A0C03
:1003DC0042EA0C42B04091454FEA104380B23ED9FC
:1003EC00BA1808F1FF3C01D291451FD8A2EB0902C3
:1003FC00B2FBFEF909FB04F80EFB192A8AB242EA99
:10040C000A42424529D2BA1809F1FF31C2D24245FB
:10041C00C0D2A9F102013A44BCE7C6459BD2B8EB65
:10042C0002036CEB070C0138E14694E7A7EB0909D2
:10043C004A44B2FBFEF9A8F1020C09FB04F8DBE715
:10044C0003467DE7D04665E70846FAE63B44023AA8
:10045C0030E7ACF1020C3B4419E749469AE7A2EBB2
:10046C000902B2FBFEF9C44609FB04F8C4E700BF5D
:10047C00704700BF80B586B000AF07F108030022BB
:10048C001A605A609A60DA60354B9B69344A43F0C3
:10049C0004039361324B9B6903F004037B607B681C
:1004AC002F4B9B692E4A43F0080393612C4B9B699D
:1004BC0003F008033B603B68002240F6FF712948BB
:1004CC0001F0A9F800224BF60F71274801F0A3F8B0
:1004DC0040F6FF73BB600123FB6000233B610223EA
:1004EC007B6107F1080319461E4800F0F9FE4BF634
:1004FC000F73BB600123FB6000233B6102237B6114
:10050C0007F108031946184800F0EAFE4FF480433F
:10051C00BB60164BFB6000233B6107F108031946D7
:10052C00114800F0DDFE4FF40043BB600023FB607C
:10053C0000233B6107F1080319460A4800F0D0FE7E
:10054C00F023BB600023FB6000233B6107F1080331
:10055C001946054800F0C4FE00BF1837BD4680BDE3
:10056C000010024000080140000C01400000111076
:10057C0080B485B000AF0346FB71FB791B02FB60B6
:10058C004FF47F43BB60BB681A040449FB681343F8
:10059C000B6100BF1437BD4680BC7047000C014096
:1005AC0080B500AF114B00221A70114801F0CCFC41
:1005BC000020FFF7DDFF0F4B00221A600E4B0022CC
:1005CC001A600E4B00221A700D4B00221A800D4B34
:1005DC0000221A700C4B00221A700C4B00221A804D
:1005EC000021122000F014F800BF80BD3D00002057
:1005FC008C00002034000020380000203C0000203B
:10060C003E000020400000200200002004000020DA
:10061C0080B483B000AF03460A46FB711346BB801F
:10062C00BB88632B01D96323BB80114AFB79137000
:10063C00104B11221A70BB880F4AA2FB0323DB0854
:10064C009BB2DAB20D4B1A70BA880B4BA3FB021398
:10065C00D9080B469B000B445B00D31A9BB2DAB251
:10066C00074B1A7000BF0C37BD4680BC704700BFEB
:10067C000100002000000020CDCCCCCC31000020AB
:10068C003000002080B483B000AF0346FB80FB88B1
:10069C00632B01D96323FB80104B0F221A70104B74
:1006AC0011221A70FB880F4AA2FB0323DB089BB2B2
:1006BC00DAB20D4B1A70FA880A4BA3FB0213D90855
:1006CC000B469B000B445B00D31A9BB2DAB2074B70
:1006DC001A7000BF0C37BD4680BC7047010000206B
:1006EC0000000020CDCCCCCC31000020300000200C
:1006FC0080B483B000AF03460A46FB711346BB714E
:10070C00FB79632B01D96323FB71BB79632B01D973
:10071C006323BB71FB79174AA2FB0323DB08DAB214
:10072C00154B1A70FA79134BA3FB0213D9080B461D
:10073C009B000B445B00D31ADAB2104B1A70BB79D6
:10074C000C4AA2FB0323DB08DAB20D4B1A70BA7900
:10075C00084BA3FB0213D9080B469B000B445B0010
:10076C00D31ADAB2074B1A7000BF0C37BD4680BCE7
:10077C00704700BFCDCCCCCC010000200000002085
:10078C003100002030000020B0B584B000AF01462D
:10079C00F980F988002901D10121F980F9886329B0
:1007AC0001D96321F98042F21071F960F9880020B7
:1007BC000A4603464FF000004FF0000111000020E4
:1007CC00FB6800221C46154622462B46FFF7B8FC58
:1007DC0002460B46024B1A6000BF1037BD46B0BD37
:1007EC003800002080B500AF8E4B1B78DBB2092B94
:1007FC0039D88D4B1B78DBB2022B00F011818B4B5F
:10080C001A888B4BA3FB0213D9080B469B000B4495
:10081C005B00D31A9BB21A46920013445B009BB246
:10082C00804A1278D2B213449AB2804B1A80814B10
:10083C001B780133DAB27F4B1A707B4B1B78DBB21F
:10084C00002B06D1794B1B8819461220FFF7E0FECE
:10085C0009E0754B1B78DBB2012B04D1734B1B8861
:10086C001846FFF70FFF6F4B1B78DBB20A2B29D111
:10087C006D4B1B78DBB2002B10D16C4B1B88202BE3
:10088C0005D86A4B1B8801339AB2684B1A80674BA8
:10089C001B8819461220FFF7BBFE13E0624B1B7836
:1008AC00DBB2012B0ED1614B1B88622B05D85F4B41
:1008BC001B8801339AB25D4B1A805C4B1B8818461F
:1008CC00FFF7E0FE574B1B78DBB20B2B29D1564BB5
:1008DC001B78DBB2002B10D1544B1B88002B05D09E
:1008EC00524B1B88013B9AB2504B1A804F4B1B88C2
:1008FC0019461220FFF78CFE13E04B4B1B78DBB232
:10090C00012B0ED1494B1B88002B05D0474B1B8864
:10091C00013B9AB2454B1A80444B1B881846FFF793
:10092C00B1FE404B1B78DBB20C2B17D13F4B002296
:10093C001A80404B00221A703B4B1B78DBB2002B09
:10094C0004D100211220FFF763FE07E0364B1B7821
:10095C00DBB2012B02D10020FFF794FE314B1B7848
:10096C00DBB20D2B5DD1304B1B78DBB2002B1CD1D5
:10097C002E4B1B88212B06D92C4B1B881946122079
:10098C00FFF746FE4DE0294B1B88DAB22A4B1A7052
:10099C00264B00221A80274B00221A70224B012270
:1009AC001A700020FFF76EFE3BE01F4B1B78DBB28A
:1009BC00012B36D11D4B1B88002B02D11B4B012266
:1009CC001A801A4B1B88632B02D9184B63221A808E
:1009DC00164B1A88194B1A80194B00221A60174BA8
:1009EC001B889BB21846FFF7CFFE164B01221A70DC
:1009FC00154801F057FA0C4B02221A700E4B1B785B
:100A0C00DBB20E4A128892B2D2B211461846FFF7E8
:100A1C006FFE064B00221A80064B00221A7000E073
:100A2C0000BF80BD320000203C0000203E000020B2
:100A3C00CDCCCCCC400000200200002004000020D3
:100A4C00340000203D0000208C00002080B584B0D4
:100A5C0000AF00F0DBFA00F051F9FFF70BFD00F0EE
:100A6C00E3F900F031FA00211220FFF7D1FD9B4889
:100A7C0001F018FA4FF40041994800F0B5FD034617
:100A8C00002B05D0FFF78CFD4FF4967000F020FB87
:100A9C00944B954A1A610023FB6002E0FB6801331A
:100AAC00FB60FB68B3F5967FF8DB10218D4800F0F6
:100ABC009BFD0346002B07D08C4B01221A70FFF7CD
:100ACC0091FEC82000F004FB2021864800F08CFD2C
:100ADC000346002B07D0854B02221A70FFF782FECB
:100AEC00C82000F0F5FA40217E4800F07DFD034659
:100AFC00002B07D07D4B03221A70FFF773FEC82022
:100B0C0000F0E6FA8021774800F06EFD0346002BDA
:100B1C0007D0764B0A221A70FFF764FEC82000F04B
:100B2C00D7FA704B724A1A610023BB6002E0BB68B3
:100B3C000133BB60BB68B3F5967FF8DB10216948C5
:100B4C0000F052FD0346002B07D0684B04221A70AC
:100B5C00FFF748FEC82000F0BBFA2021614800F0E6
:100B6C0043FD0346002B07D0604B05221A70FFF79C
:100B7C0039FEC82000F0ACFA40215A4800F034FD90
:100B8C000346002B07D0594B06221A70FFF72AFE9A
:100B9C00C82000F09DFA8021524800F025FD034644
:100BAC00002B07D0514B0B221A70FFF71BFEC820ED
:100BBC0000F08EFA4B4B4F4A1A6100237B6002E027
:100BCC007B6801337B607B68B3F5967FF8DB102183
:100BDC00444800F009FD0346002B07D0434B072285
:100BEC001A70FFF7FFFDC82000F072FA20213D4873
:100BFC0000F0FAFC0346002B07D03C4B08221A707D
:100C0C00FFF7F0FDC82000F063FA4021354800F0F2
:100C1C00EBFC0346002B07D0344B09221A70FFF76C
:100C2C00E1FDC82000F054FA80212E4800F0DCFCD5
:100C3C000346002B07D02D4B0C221A70FFF7D2FD68
:100C4C00C82000F045FA274B2B4A1A6100233B6061
:100C5C0002E03B6801333B603B68B3F5967FF8DB01
:100C6C001021204800F0C0FC0346002B07D01F4B7E
:100C7C000F221A70FFF7B6FDC82000F029FA2021C8
:100C8C00184800F0B1FC0346002B07D0174B00228C
:100C9C001A70FFF7A7FDC82000F01AFA402111487E
:100CAC0000F0A2FC0346002B07D0104B0E221A704A
:100CBC00FFF798FDC82000F00BFA8021094800F0DE
:100CCC0093FC0346002B3FF4D5AE084B0D221A7053
:100CDC00FFF788FDC82000F0FBF9CBE644000020AC
:100CEC0000080140000C014001000F003200002000
:100CFC0002000F0004000F0008000F0080B590B038
:100D0C0000AF07F1180328220021184601F074FBEC
:100D1C003B1D00221A605A609A60DA601A61022345
:100D2C00BB610123BB621023FB6200237B6307F1D1
:100D3C001803184600F088FC0346002B01D000F085
:100D4C0018F80F237B600023BB600023FB6000239B
:100D5C003B6100237B613B1D0021184600F0F6FE31
:100D6C000346002B01D000F004F800BF4037BD460D
:100D7C0080BD80B400AF72B600BF00BFFDE70000BD
:100D8C0080B483B000AF0E4B9B690D4A43F0010356
:100D9C0093610B4B9B6903F001037B607B68084BF1
:100DAC00DB69074A43F08053D361054BDB6903F0E1
:100DBC0080533B603B6800BF0C37BD4680BC70471E
:100DCC000010024080B400AF00BFFDE780B400AF5C
:100DDC0000BFFDE780B400AF00BFFDE780B400AFFB
:100DEC0000BFFDE780B400AF00BFFDE780B400AFEB
:100DFC0000BFBD4680BC704780B400AF00BFBD468D
:100E0C0080BC704780B400AF00BFBD4680BC70474B
:100E1C0080B500AF00F040F900BF80BD80B400AFDA
:100E2C0000BFBD4680BC704780B586B000AF07F1EF
:100E3C00080300221A605A609A60DA603B4600226E
:100E4C001A605A601E4B1F4A1A601D4B00225A60D2
:100E5C001B4B00229A601A4B41F63F72DA60184B1A
:100E6C0000221A61164B00225A61154B00229A611E
:100E7C00134800F0C7FF0346002B01D0FFF779FFA2
:100E8C004FF48053BB6007F1080319460C4801F07E
:100E9C0089F80346002B01D0FFF76BFF00233B6062
:100EAC0000237B603B461946054801F047FA034690
:100EBC00002B01D0FFF75DFF00BF1837BD4680BD8A
:100ECC0044000020002C014080B586B000AF07F133
:100EDC00080300221A605A609A60DA603B460022CE
:100EEC001A605A601D4B4FF080421A601B4B002257
:100EFC005A601A4B00229A60184B40F21F32DA608B
:100F0C00164B00221A61154B00229A61134800F00F
:100F1C0079FF0346002B01D0FFF72BFF4FF48053D2
:100F2C00BB6007F1080319460C4801F03BF8034677
:100F3C00002B01D0FFF71DFF00233B6000237B60DB
:100F4C003B461946054801F0F9F90346002B01D040
:100F5C00FFF70FFF00BF1837BD4680BD8C00002087
:100F6C0080B485B000AF78607B681B68124A9342EE
:100F7C000CD1124B9B69114A43F4006393610F4BE4
:100F8C009B6903F40063FB60FB6810E07B681B68E3
:100F9C00B3F1804F0BD1094BDB69084A43F00103D5
:100FAC00D361064BDB6903F00103BB60BB6800BF78
:100FBC001437BD4680BC7047002C01400010024025
:100FCC00FFF72CFF0B480C490C4A002302E0D458C5
:100FDC00C4500433C4188C42F9D3094A094C002379
:100FEC0001E013600432A242FBD301F00DFAFFF7CB
:100FFC002DFD70470000002014000020A8240008DC
:10100C0014000020D8000020FEE7000080B500AFDF
:10101C00084B1B68074A43F010031360032000F0D1
:10102C002BF90F2000F008F8FFF7AAFE0023184652
:10103C0080BD00BF0020024080B582B000AF786058
:10104C00124B1A68124B1B7819464FF47A73B3FB88
:10105C00F1F3B2FBF3F3184600F035F90346002B1D
:10106C0001D001230EE07B680F2B0AD8002279688F
:10107C004FF0FF3000F00BF9064A7B681360002339
:10108C0000E0012318460837BD4680BD080000204B
:10109C00100000200C00002080B400AF054B1B7822
:1010AC001A46054B1B681344034A136000BFBD4628
:1010BC0080BC704710000020D400002080B400AF2A
:1010CC00024B1B681846BD4680BC7047D4000020FC
:1010DC0080B584B000AF7860FFF7F0FFB8607B6834
:1010EC00FB60FB68B3F1FF3F05D00A4B1B781A4637
:1010FC00FB681344FB6000BFFFF7E0FF0246BB68D0
:10110C00D31AFA689A42F7D800BF00BF1037BD4611
:10111C0080BD00BF1000002080B485B000AF7860A7
:10112C007B6803F00703FB600C4BDB68BB60BA68A1
:10113C004FF6FF031340BB60FB681A02BB681343F6
:10114C0043F0BF6343F40033BB60044ABB68D36015
:10115C0000BF1437BD4680BC704700BF00ED00E0F7
:10116C0080B400AF044BDB681B0A03F0070318467E
:10117C00BD4680BC704700BF00ED00E080B483B07A
:10118C0000AF03463960FB7197F90730002B0ADB7F
:10119C003B68DAB20C4997F907301201D2B20B4412
:1011AC0083F800230AE03B68DAB20849FB7903F0C4
:1011BC000F03043B1201D2B20B441A7600BF0C375A
:1011CC00BD4680BC704700BF00E100E000ED00E0D0
:1011DC0080B489B000AFF860B9607A60FB6803F046
:1011EC000703FB61FB69C3F10703042B28BF04232E
:1011FC00BB61FB690433062B02D9FB69033B00E09E
:10120C0000237B614FF0FF32BB6902FA03F3DA4330
:10121C00BB681A407B699A404FF0FF317B6901FA39
:10122C0003F3D9437B680B40134318462437BD4660
:10123C0080BC704780B582B000AF78607B68013BA2
:10124C00B3F1807F01D301230FE00A4A7B68013B95
:10125C0053600F214FF0FF30FFF790FF054B00223A
:10126C009A60044B07221A60002318460837BD46C3
:10127C0080BD00BF10E000E080B582B000AF7860A8
:10128C007868FFF749FF00BF0837BD4680BD80B5C1
:10129C0086B000AF0346B9607A60FB7300237B61B4
:1012AC00FFF75EFF78617A68B9687869FFF790FF9D
:1012BC00024697F90F3011461846FFF75FFF00BF43
:1012CC001837BD4680BD80B582B000AF78607868B5
:1012DC00FFF7B0FF034618460837BD4680BD000037
:1012EC0080B48BB000AF7860396000237B62002340
:1012FC003B6269E101227B6A02FA03F3FB613B6802
:10130C001B68FA691340BB61BA69FB699A4240F0E9
:10131C0058813B685B689A4A93425ED0984A9342E4
:10132C0075D8984A934258D0964A93426FD8964AA9
:10133C00934252D0944A934269D8944A93424CD0E7
:10134C00924A934263D8924A934246D0904A93422F
:10135C005DD8122B2AD8122B59D801A252F823F09F
:10136C00E7130008C1130008D31300081514000874
:10137C001B1400081B1400081B1400081B14000885
:10138C001B1400081B1400081B1400081B14000875
:10139C001B1400081B1400081B1400081B14000865
:1013AC001B140008C9130008DD130008794A934286
:1013BC0013D02CE03B68DB683B6229E03B68DB68C0
:1013CC0004333B6224E03B68DB6808333B621FE07C
:1013DC003B68DB680C333B621AE03B689B68002B74
:1013EC0002D104233B6213E03B689B68012B05D1BF
:1013FC0008233B627B68FA691A6109E008233B62A7
:10140C007B68FA695A6103E000233B6200E000BF8D
:10141C00BB69FF2B01D87B6801E07B6804337B61DF
:10142C00BB69FF2B02D87B6A9B0002E07B6A083BFE
:10143C009B003B617B691A680F213B6901FA03F33E
:10144C00DB431A40396A3B6901FA03F31A437B699F
:10145C001A603B685B6803F08053002B00F0B1808E
:10146C004D4B9B694C4A43F0010393614A4B9B697A
:10147C0003F00103BB60BB68484A7B6A9B080233DC
:10148C0052F82330FB607B6A03F003039B000F22AE
:10149C0002FA03F3DB43FA681340FB607B68404AB3
:1014AC00934213D07B683F4A93420DD07B683E4AEF
:1014BC00934207D07B683D4A934201D1032306E057
:1014CC00042304E0022302E0012300E000237A6AF3
:1014DC0002F0030292009340FA681343FB602F4919
:1014EC007B6A9B080233FA6841F823203B685B68EF
:1014FC0003F48013002B06D02D4B9A682C49BB6942
:10150C0013438B6006E02A4B9A68BB69DB4328497E
:10151C0013408B603B685B6803F40013002B06D010
:10152C00234BDA682249BB691343CB6006E0204B9E
:10153C00DA68BB69DB431E491340CB603B685B68D0
:10154C0003F40033002B06D0194B5A681849BB69B9
:10155C0013434B6006E0164B5A68BB69DB431449D6
:10156C0013404B603B685B6803F48033002B21D045
:10157C000F4B1A680E49BB6913430B6021E000BF87
:10158C000000321000003110000022100000211069
:10159C000000121000001110001002400000014069
:1015AC0000080140000C01400010014000140140F3
:1015BC00000401400B4B1A68BB69DB43094913401B
:1015CC000B607B6A01337B623B681A687B6A22FA88
:1015DC0003F3002B7FF48EAE00BF00BF2C37BD464B
:1015EC0080BC70470004014080B485B000AF7860C7
:1015FC000B467B807B689A687B881340002B02D05B
:10160C000123FB7301E00023FB73FB7B18461437AB
:10161C00BD4680BC704780B483B000AF78600B4689
:10162C007B8013467B707B78002B03D07A887B6899
:10163C001A6103E07B881A047B681A6100BF0C37BF
:10164C00BD4680BC7047000080B586B000AF7860A6
:10165C007B68002B01D1012372E27B681B6803F0CD
:10166C000103002B00F08780924B5B6803F00C03A6
:10167C00042B0CD08F4B5B6803F00C03082B12D19E
:10168C008C4B5B6803F48033B3F5803F0BD1894BF3
:10169C001B6803F40033002B6CD07B685B68002B59
:1016AC0068D101234CE27B685B68B3F5803F06D1BF
:1016BC00804B1B687F4A43F4803313602EE07B68B9
:1016CC005B68002B0CD17B4B1B687A4A23F480336C
:1016DC001360784B1B68774A23F4802313601DE05A
:1016EC007B685B68B3F5A02F0CD1724B1B68714AF9
:1016FC0043F4802313606F4B1B686E4A43F48033B2
:10170C0013600BE06B4B1B686A4A23F48033136045
:10171C00684B1B68674A23F4802313607B685B6803
:10172C00002B13D0FFF7CAFC386108E0FFF7C6FCAA
:10173C0002463B69D31A642B01D9032300E25D4BAB
:10174C001B6803F40033002BF0D014E0FFF7B6FC59
:10175C00386108E0FFF7B2FC02463B69D31A642BF0
:10176C0001D90323ECE1534B1B6803F40033002B2A
:10177C00F0D100E000BF7B681B6803F00203002B74
:10178C0063D04C4B5B6803F00C03002B0BD0494B24
:10179C005B6803F00C03082B1CD1464B5B6803F40D
:1017AC008033002B16D1434B1B6803F00203002B34
:1017BC0005D07B681B69012B01D00123C0E13D4B97
:1017CC001B6823F0F8027B685B69DB003949134323
:1017DC000B603AE07B681B69002B20D0364B012252
:1017EC001A60FFF76BFC386108E0FFF767FC0246F4
:1017FC003B69D31A022B01D90323A1E12D4B1B68A2
:10180C0003F00203002BF0D02A4B1B6823F0F802E4
:10181C007B685B69DB00274913430B6015E0264BA3
:10182C0000221A60FFF74AFC386108E0FFF746FC1B
:10183C0002463B69D31A022B01D9032380E11D4BCD
:10184C001B6803F00203002BF0D17B681B6803F0CC
:10185C000803002B3AD07B689B69002B19D0174BDF
:10186C0001221A60FFF72AFC386108E0FFF726FC1A
:10187C0002463B69D31A022B01D9032360E10D4BBD
:10188C005B6A03F00203002BF0D0012000F09CFAFD
:10189C001CE00A4B00221A60FFF710FC38610FE0C5
:1018AC00FFF70CFC02463B69D31A022B08D9032321
:1018BC0046E100BF00100240000042428004424258
:1018CC00924B5B6A03F00203002BE9D17B681B6827
:1018DC0003F00403002B00F0A6800023FB758B4B58
:1018EC00DB6903F08053002B0DD1884BDB69874AF1
:1018FC0043F08053D361854BDB6903F08053BB60AD
:10190C00BB680123FB75824B1B6803F48073002BAF
:10191C0018D17F4B1B687E4A43F480731360FFF72A
:10192C00CDFB386108E0FFF7C9FB02463B69D31ACF
:10193C00642B01D9032303E1754B1B6803F48073FB
:10194C00002BF0D07B68DB68012B06D16F4B1B6A38
:10195C006E4A43F0010313622DE07B68DB68002BB9
:10196C000CD16A4B1B6A694A23F001031362674B63
:10197C001B6A664A23F0040313621CE07B68DB6875
:10198C00052B0CD1614B1B6A604A43F004031362B4
:10199C005E4B1B6A5D4A43F0010313620BE05B4B29
:1019AC001B6A5A4A23F001031362584B1B6A574AAD
:1019BC0023F0040313627B68DB68002B15D0FFF760
:1019CC007DFB38610AE0FFF779FB02463B69D31ACD
:1019DC0041F28832934201D90323B1E04B4B1B6A8D
:1019EC0003F00203002BEED014E0FFF767FB386125
:1019FC000AE0FFF763FB02463B69D31A41F28832D7
:101A0C00934201D903239BE0404B1B6A03F0020372
:101A1C00002BEED1FB7D012B05D13C4BDB693B4A06
:101A2C0023F08053D3617B68DB69002B00F0878047
:101A3C00364B5B6803F00C03082B61D07B68DB69C9
:101A4C00022B46D1334B00221A60FFF737FB38616B
:101A5C0008E0FFF733FB02463B69D31A022B01D98E
:101A6C0003236DE0294B1B6803F00073002BF0D1AE
:101A7C007B681B6AB3F5803F08D1244B5B6823F469
:101A8C0000327B689B68214913434B601F4B5B689A
:101A9C0023F474127B68196A7B685B6A0B431B49DD
:101AAC0013434B601B4B01221A60FFF707FB386195
:101ABC0008E0FFF703FB02463B69D31A022B01D95E
:101ACC0003233DE0114B1B6803F00073002BF0D097
:101ADC0035E0104B00221A60FFF7F0FA386108E08D
:101AEC00FFF7ECFA02463B69D31A022B01D9032308
:101AFC0026E0064B1B6803F00073002BF0D11EE0B0
:101B0C007B68DB69012B07D1012319E0001002402F
:101B1C0000700040600042420B4B5B68FB60FB684E
:101B2C0003F480327B681B6A9A4206D1FB6803F48B
:101B3C0070127B685B6A9A4201D0012300E000239B
:101B4C0018461837BD4680BD0010024080B584B0E1
:101B5C0000AF786039607B68002B01D10123D0E0A5
:101B6C006A4B1B6803F007033A689A4210D9674B1B
:101B7C001B6823F0070265493B6813430B60634BFA
:101B8C001B6803F007033A689A4201D00123B8E0BE
:101B9C007B681B6803F00203002B20D07B681B685A
:101BAC0003F00403002B05D0594B5B68584A43F4EF
:101BBC00E06353607B681B6803F00803002B05D0BF
:101BCC00534B5B68524A43F460535360504B5B6811
:101BDC0023F0F0027B689B684D4913434B607B6894
:101BEC001B6803F00103002B40D07B685B68012B62
:101BFC0007D1474B1B6803F40033002B15D101238D
:101C0C007FE07B685B68022B07D1414B1B6803F0BC
:101C1C000073002B09D1012373E03D4B1B6803F0CB
:101C2C000203002B01D101236BE0394B5B6823F0DD
:101C3C0003027B685B68364913434B60FFF73EFA3F
:101C4C00F8600AE0FFF73AFA0246FB68D31A41F251
:101C5C008832934201D9032353E02D4B5B6803F088
:101C6C000C027B685B689B009A42EBD1274B1B688C
:101C7C0003F007033A689A4210D2244B1B6823F0F6
:101C8C00070222493B6813430B60204B1B6803F08F
:101C9C0007033A689A4201D0012332E07B681B6843
:101CAC0003F00403002B08D0194B5B6823F4E062AB
:101CBC007B68DB68164913434B607B681B6803F039
:101CCC000803002B09D0124B5B6823F460527B682D
:101CDC001B69DB000E4913434B6000F021F80246F0
:101CEC000B4B5B681B0903F00F030A49CB5C22FA10
:101CFC0003F3094A1360094B1B681846FFF79CF95C
:101D0C00002318461037BD4680BD00BF002002409E
:101D1C000010024074240008080000200C00002071
:101D2C0080B487B000AF0023FB600023BB600023AE
:101D3C007B6100237B6000233B611E4B5B68FB6077
:101D4C00FB6803F00C03042B02D0082B03D027E014
:101D5C00194B3B6127E0FB689B0C03F00F03174A00
:101D6C00D35C7B60FB6803F48033002B10D0114BE9
:101D7C005B685B0C03F00103114AD35CBB607B68AE
:101D8C000D4A03FB02F2BB68B2FBF3F37B6104E088
:101D9C007B680C4A02FB03F37B617B693B6102E0CD
:101DAC00054B3B6100BF3B6918461C37BD4680BCE8
:101DBC00704700BF0010024000127A008424000813
:101DCC009424000800093D0080B485B000AF786011
:101DDC000A4B1B680A4AA2FB03235B0A7A6802FBC4
:101DEC0003F3FB6000BFFB685A1EFA60002BF9D1AD
:101DFC0000BF00BF1437BD4680BC704708000020F0
:101E0C00D34D621080B582B000AF78607B68002B38
:101E1C0001D1012341E07B6893F83D30DBB2002B0C
:101E2C0006D17B68002283F83C207868FFF798F88D
:101E3C007B68022283F83D207B681A687B68043338
:101E4C001946104600F076F97B68012283F846208B
:101E5C007B68012283F83E207B68012283F83F20B7
:101E6C007B68012283F840207B68012283F84120A3
:101E7C007B68012283F842207B68012283F843208F
:101E8C007B68012283F844207B68012283F845207B
:101E9C007B68012283F83D20002318460837BD4695
:101EAC0080BD000080B485B000AF78607B6893F88B
:101EBC003D30DBB2012B01D001233AE07B680222DA
:101ECC0083F83D207B681B68DA687B681B6842F0EE
:101EDC000102DA607B681B68184A93420ED07B685B
:101EEC001B68B3F1804F09D07B681B68144A93427E
:101EFC0004D07B681B68134A934211D17B681B6822
:101F0C009B6803F00703FB60FB68062B10D07B6813
:101F1C001B681A687B681B6842F001021A6007E0B4
:101F2C007B681B681A687B681B6842F001021A60A8
:101F3C00002318461437BD4680BC7047002C014066
:101F4C00000400400008004080B483B000AF78600B
:101F5C007B681B68DA687B681B6822F00102DA6018
:101F6C007B681B681A6A41F211131340002B0FD1C6
:101F7C007B681B681A6A40F244431340002B07D15C
:101F8C007B681B681A687B681B6822F001021A6068
:101F9C007B68012283F83D20002318460C37BD4690
:101FAC0080BC704780B584B000AF78603960002386
:101FBC00FB737B6893F83C30012B01D10223B4E016
:101FCC007B68012283F83C207B68022283F83D2049
:101FDC007B681B689B68BB60BB6823F07703BB60A6
:101FEC00BB6823F47F43BB607B681B68BA689A604C
:101FFC003B681B68B3F5005F3ED0B3F5005F00F2A1
:10200C008780B3F5805F00F08680B3F5805F7FD862
:10201C00702B1AD0702B7BD8602B50D0602B77D8BC
:10202C00502B3CD0502B73D8402B58D0402B6FD812
:10203C00302B64D0302B6BD8202B60D0202B67D862
:10204C00002B5CD0102B5AD062E07B6818683B6880
:10205C0099683B685A683B68DB6800F050F97B680C
:10206C001B689B68BB60BB6843F07703BB607B68F5
:10207C001B68BA689A604FE07B6818683B6899687F
:10208C003B685A683B68DB6800F039F97B681B6871
:10209C009A687B681B6842F480429A603CE07B68DB
:1020AC0018683B6859683B68DB681A4600F0B0F862
:1020BC007B681B685021184600F007F92CE07B6800
:1020CC0018683B6859683B68DB681A4600F0CEF824
:1020DC007B681B686021184600F0F7F81CE07B68F1
:1020EC0018683B6859683B68DB681A4600F090F842
:1020FC007B681B684021184600F0E7F80CE07B6811
:10210C001A683B681B681946104600F0DEF803E0BD
:10211C000123FB7300E000BF7B68012283F83D20A4
:10212C007B68002283F83C20FB7B18461037BD46A9
:10213C0080BD000080B485B000AF786039607B68EA
:10214C001B68FB607B682F4A93420BD07B68B3F112
:10215C00804F07D07B682C4A934203D07B682B4A74
:10216C00934208D1FB6823F07003FB603B685B680B
:10217C00FA681343FB607B68224A93420BD07B685E
:10218C00B3F1804F07D07B681F4A934203D07B6822
:10219C001E4A934208D1FB6823F44073FB603B68F2
:1021AC00DB68FA681343FB60FB6823F080023B6832
:1021BC005B691343FB607B68FA681A603B689A683A
:1021CC007B68DA623B681A687B689A627B680D4AA6
:1021DC00934203D13B681A697B681A637B680122BE
:1021EC005A617B681B6903F00103002B05D07B68E7
:1021FC001B6923F001027B681A6100BF1437BD46CE
:10220C0080BC7047002C01400004004000080040D6
:10221C0080B487B000AFF860B9607A60FB681B6A65
:10222C007B61FB681B6A23F00102FB681A62FB6886
:10223C009B693B613B6923F0F0033B617B681B01AD
:10224C003A6913433B617B6923F00A037B617A692A
:10225C00BB6813437B61FB683A699A61FB687A69D6
:10226C001A6200BF1C37BD4680BC704780B487B073
:10227C0000AFF860B9607A60FB681B6A7B61FB6831
:10228C001B6A23F01002FB681A62FB689B693B61B6
:10229C003B6923F470433B617B681B033A6913432E
:1022AC003B617B6923F0A0037B61BB681B017A69EE
:1022BC0013437B61FB683A699A61FB687A691A621D
:1022CC0000BF1C37BD4680BC704780B485B000AFE2
:1022DC00786039607B689B68FB60FB6823F0700357
:1022EC00FB603A68FB68134343F00703FB607B68B1
:1022FC00FA689A6000BF1437BD4680BC704780B442
:10230C0087B000AFF860B9607A603B60FB689B688F
:10231C007B617B6923F47F437B613B681A027B689A
:10232C001A43BB6813437A6913437B61FB687A6970
:10233C009A6000BF1C37BD4680BC704780B485B026
:10234C0000AF786039607B6893F83C30012B01D189
:10235C00022346E07B68012283F83C207B68022242
:10236C0083F83D207B681B685B68FB607B681B689F
:10237C009B68BB60FB6823F07003FB603B681B68C9
:10238C00FA681343FB607B681B68FA685A607B68C9
:10239C001B68164A93420ED07B681B68B3F1804FC2
:1023AC0009D07B681B68124A934204D07B681B6877
:1023BC00104A93420CD1BB6823F08003BB603B688E
:1023CC005B68BA681343BB607B681B68BA689A6029
:1023DC007B68012283F83D207B68002283F83C2037
:1023EC00002318461437BD4680BC7047002C0140B2
:1023FC00000400400008004003460244934200D110
:10240C00704703F8011BF9E770B500260C4D0D4C15
:10241C00641BA410A64209D100F01AF800260A4D3C
:10242C000A4C641BA410A64205D170BD55F8043BA0
:10243C0098470136EEE755F8043B98470136F2E72A
:10244C00A0240008A0240008A0240008A42400084C
:10245C00F8B500BFF8BC08BC9E467047F8B500BF85
:08246C00F8BC08BC9E46704755
:102474000000000000000000010203040607080930
:1024840002030405060708090A0B0C0D0E0F1010B1
:042494000102000041
:08249800E4DCFF7F01000000FD
:0424A00031010008FE
:0424A4000D0100081E
:1024A800111221006400000000127A0010000000E0
:0424B800010000001F
:0400000508000FCD13
:00000001FF
